:100000000C942D000C94E50A0C94B9080C94E50AA4
:100010000C94E50A0C94E50A0C94E50A0C94E50AA4
:100020000C94E50A0C94E50A0C94E50A0C94E50A94
:100030000C94E50A0C94E50A0C94E50A0C94E50A84
:100040000C94E50A0C94E50A0C94E50A0C94E50A74
:100050000C94E50A00600076800011241FBECFE5F5
:10006000D4E0DEBFCDBFE4E5F0E040E017C0B591DD
:10007000A59135912591059107FD0CC0959185912C
:10008000EF01F92FE82F05900D92A217B307D9F7CA
:10009000FE0104C01D92A217B307E1F7E935F4078A
:0E00A00031F70E941F080C94C40AF894FFCF99
:1000AE002054494D453A20005254433A2030303ABC
:1000BE0030303A3030005345542054494D452031AC
:1000CE003A005345542054494D4520323A00534589
:1000DE00542054494D4520333A002020434F4E546E
:0B00EE00524F4C204D4F444520200095
:1000FA00EF92FF920F931F93CF93DF9300D00F924B
:10010A00CDB7DEB780E008C0E1E0F0E0EC0FFD1FFC
:10011A00E80FF11D10828F5F8330B0F381E00E94F7
:10012A00950A83EF91E00197F1F700C000008FE094
:10013A000E94950A80E80E94950A66EB70E080E0CA
:10014A000E94650A85E80E94950AFB801DECF19ED3
:10015A00012D112406950695069580E3800F0E94CD
:10016A00A70A000F802F880F880F080F8F2D801B7A
:10017A00805D0E94A70A8AE30E94A70AFA80F19E7C
:10018A00012D112406950695069580E3800F0E949D
:10019A00A70A000F802F880F880F080F8F2D801B4A
:1001AA00805D0E94A70A8AE30E94A70A0981019F2B
:1001BA00112D112416951695169580E3810F0E942C
:1001CA00A70A110F812F880F880F180F802F811B04
:1001DA00805D0E94A70A85E80E94950A11E00E94A4
:1001EA00440A80916C008F3071F50E94DC0A80ED20
:1001FA000E94CF0A80E00E94CF0A89810E94820A67
:10020A000E94CF0A8A810E94820A0E94CF0A8B81A9
:10021A000E94820A0E94CF0A83E00E94820A0E94F8
:10022A00CF0A8AE10E94820A0E94CF0A8BE00E94CA
:10023A00820A0E94CF0A88E10E94820A0E94CF0A9B
:10024A000E94E20A35C180916C008A3061F4113053
:10025A0049F0123029F485E80E94950A10E003C09B
:10026A00125001C015E080916C0080916C008A30B8
:10027A0008F0E9C03B812A8199811330C9F128F439
:10028A00113061F0123019F186C0153009F45AC0E4
:10029A0008F447C0163009F46EC07DC040916C0066
:1002AA008DEC389F812D1124869586958695880F29
:1002BA00582F550F550F850F532F581B842F880F12
:1002CA00482F440F440F840F850F8B8364C04091DD
:1002DA006C008DEC389F812D112486958695869524
:1002EA00880F582F550F550F850F840F8B8353C0D6
:1002FA0040916C008DEC289F812D1124869586955E
:10030A008695880F582F550F550F850F522F581B5A
:10031A00842F880F482F440F440F840F850F8A8338
:10032A003AC040916C008DEC289F812D112486954E
:10033A0086958695880F582F550F550F850F840F70
:10034A008A8329C040916C008DEC989F812D1124DD
:10035A00869586958695880F582F550F550F850FC8
:10036A00592F581B842F880F482F440F440F840F8E
:10037A00850F898310C040916C008DEC989F812D68
:10038A001124869586958695880F582F550F550FF7
:10039A00850F840F89838B81883110F03B8311503C
:1003AA008A818C3310F02A83115089818C3310F0A2
:1003BA009983115085E80E94950AEB800DECE09E26
:1003CA00F12C1124F694F694F69480E38F0D0E9492
:1003DA00A70AFF0C8F2D880F880FF80E8E2D8F1904
:1003EA00805D0E94A70A8AE30E94A70AEA80E09E2B
:1003FA00F12C1124F694F694F69480E38F0D0E9462
:10040A00A70AFF0C8F2D880F880FF80E8E2D8F19D3
:10041A00805D0E94A70A8AE30E94A70AF980F09EDB
:10042A00012D112406950695069580E3800F0E94FA
:10043A00A70A000F802F880F880F080F8F2D801BA7
:10044A00805D0E94A70A1330A1F028F4113049F008
:10045A00123059F01DC01530A1F078F01630A9F00D
:10046A0017C086E80E94950A13C088E80E94950A78
:10047A000FC089E80E94950A0BC08BE80E94950A72
:10048A0007C08CE80E94950A03C085E80E94950A75
:10049A008BEA189F812D112486958695982F990F9E
:1004AA00890F982F990F812F891B11E0180F97CE6A
:1004BA000F900F900F90DF91CF911F910F91FF90A6
:0404CA00EF90089512
:1004CE00CF93DF9381E00E94950A83EF91E001972D
:1004DE00F1F700C000008FE00E94950A80E80E94AC
:1004EE00950A64EC70E080E00E94650A80EC0E9440
:1004FE00950A80917500CDEC8C9F812D11248695E7
:10050E0086958695805D0E94A70A809175008C9FC6
:10051E00912D1124969596959695990F292F220F28
:10052E00220F920F891B805D0E94A70A8AE30E9408
:10053E00A70A809174008C9F812D11248695869533
:10054E008695805D0E94A70A809174008C9F912DE4
:10055E001124969596959695990F292F220F220F75
:10056E00920F891B805D0E94A70A8AE30E94A70A48
:10057E00809173008C9F812D11248695869586958A
:10058E00805D0E94A70A809173008C9FC12D11245B
:10059E00C695C695C695CC0F9C2F990F990FC90F6E
:1005AE008C1B805D0E94A70A80EC0E94950AC1E018
:1005BE000E94440A80916C008C3009F466C18091CF
:1005CE006C008A3061F4C13049F0C23029F480ECFD
:1005DE000E94950AC0E003C0C25001C0C5E08091E0
:1005EE006C0080916C008A3008F01AC13091750051
:1005FE002091740090917300C33009F43FC028F429
:10060E00C13061F0C23031F198C0C53009F466C016
:10061E0008F450C0C63009F47DC08FC040917500FB
:10062E0060916C008DEC489F812D112486958695E6
:10063E008695880F582F550F550F850F542F581B21
:10064E00862F880F482F440F440F840F850F8093F9
:10065E00750073C04091750050916C008DEC489FF1
:10066E00812D1124869586958695880F482F440FE7
:10067E00440F840F850F809375005FC04091740006
:10068E0060916C008DEC489F812D11248695869586
:10069E008695880F582F550F550F850F542F581BC1
:1006AE00862F880F482F440F440F840F850F809399
:1006BE00740043C04091740050916C008DEC489FC3
:1006CE00812D1124869586958695880F482F440F87
:1006DE00440F840F850F809374002FC040917300D8
:1006EE0060916C008DEC489F812D11248695869526
:1006FE008695880F582F550F550F850F542F581B61
:10070E00862F880F482F440F440F840F850F809338
:10071E00730013C04091730050916C008DEC489F94
:10072E00812D1124869586958695880F482F440F26
:10073E00440F840F850F809373008091750088316C
:10074E0018F030937500C150809174008C3318F0FE
:10075E0020937400C150809173008C3318F09093E5
:10076E007300C15080EC0E94950A80917500DDECFB
:10077E008D9F812D1124869586958695805D0E948C
:10078E00A70A809175008D9F912D112496959695AF
:10079E009695990F292F220F220F920F891B805D9C
:1007AE000E94A70A8AE30E94A70A809174008D9F77
:1007BE00812D1124869586958695805D0E94A70AC7
:1007CE00809174008D9F912D1124969596959695F6
:1007DE00990F292F220F220F920F891B805D0E94E5
:1007EE00A70A8AE30E94A70A809173008D9F812D2C
:1007FE001124869586958695805D0E94A70A809124
:10080E0073008D9FD12D1124D695D695D695DD0FDB
:10081E009D2F990F990FD90F8D1B805D0E94A70AEE
:10082E00C330A1F028F4C13049F0C23059F01DC0D8
:10083E00C530A1F078F0C630A9F017C081EC0E9447
:10084E00950A13C083EC0E94950A0FC084EC0E9497
:10085E00950A0BC086EC0E94950A07C087EC0E9491
:10086E00950A03C080EC0E94950A8BEAC89F812DE1
:10087E00112486958695982F990F890F982F990F89
:10088E008C2F891BC1E0C80F93CEDF91CF910895B5
:10089E00CF93DF9381E00E94950A83EF91E0019759
:1008AE00F1F700C000008FE00E94950A80E80E94D8
:1008BE00950A60ED70E080E00E94650A80EC0E946F
:1008CE00950A80917200CDEC8C9F812D1124869516
:1008DE0086958695805D0E94A70A809172008C9FF6
:1008EE00912D1124969596959695990F292F220F55
:1008FE00220F920F891B805D0E94A70A8AE30E9435
:10090E00A70A809171008C9F812D11248695869562
:10091E008695805D0E94A70A809171008C9F912D13
:10092E001124969596959695990F292F220F220FA1
:10093E00920F891B805D0E94A70A8AE30E94A70A74
:10094E00809170008C9F812D1124869586958695B9
:10095E00805D0E94A70A809170008C9FC12D11248A
:10096E00C695C695C695CC0F9C2F990F990FC90F9A
:10097E008C1B805D0E94A70A80EC0E94950AC1E044
:10098E000E94440A80916C008D3009F466C18091FA
:10099E006C008A3061F4C13049F0C23029F480EC29
:1009AE000E94950AC0E003C0C25001C0C5E080910C
:1009BE006C0080916C008A3008F01AC13091720080
:1009CE002091710090917000C33009F43FC028F45B
:1009DE00C13061F0C23031F198C0C53009F466C043
:1009EE0008F450C0C63009F47DC08FC0409172002B
:1009FE0060916C008DEC489F812D11248695869513
:100A0E008695880F582F550F550F850F542F581B4D
:100A1E00862F880F482F440F440F840F850F809325
:100A2E00720073C04091720050916C008DEC489F23
:100A3E00812D1124869586958695880F482F440F13
:100A4E00440F840F850F809372005FC04091710038
:100A5E0060916C008DEC489F812D112486958695B2
:100A6E008695880F582F550F550F850F542F581BED
:100A7E00862F880F482F440F440F840F850F8093C5
:100A8E00710043C04091710050916C008DEC489FF5
:100A9E00812D1124869586958695880F482F440FB3
:100AAE00440F840F850F809371002FC0409170000A
:100ABE0060916C008DEC489F812D11248695869552
:100ACE008695880F582F550F550F850F542F581B8D
:100ADE00862F880F482F440F440F840F850F809365
:100AEE00700013C04091700050916C008DEC489FC7
:100AFE00812D1124869586958695880F482F440F53
:100B0E00440F840F850F809370008091720088319E
:100B1E0018F030937200C150809171008C3318F030
:100B2E0020937100C150809170008C3318F0909317
:100B3E007000C15080EC0E94950A80917200DDEC2D
:100B4E008D9F812D1124869586958695805D0E94B8
:100B5E00A70A809172008D9F912D112496959695DE
:100B6E009695990F292F220F220F920F891B805DC8
:100B7E000E94A70A8AE30E94A70A809171008D9FA6
:100B8E00812D1124869586958695805D0E94A70AF3
:100B9E00809171008D9F912D112496959695969525
:100BAE00990F292F220F220F920F891B805D0E9411
:100BBE00A70A8AE30E94A70A809170008D9F812D5B
:100BCE001124869586958695805D0E94A70A809150
:100BDE0070008D9FD12D1124D695D695D695DD0F0B
:100BEE009D2F990F990FD90F8D1B805D0E94A70A1B
:100BFE00C330A1F028F4C13049F0C23059F01DC005
:100C0E00C530A1F078F0C630A9F017C081EC0E9473
:100C1E00950A13C083EC0E94950A0FC084EC0E94C3
:100C2E00950A0BC086EC0E94950A07C087EC0E94BD
:100C3E00950A03C080EC0E94950A8BEAC89F812D0D
:100C4E00112486958695982F990F890F982F990FB5
:100C5E008C2F891BC1E0C80F93CEDF91CF910895E1
:100C6E00CF93DF9381E00E94950A83EF91E0019785
:100C7E00F1F700C000008FE00E94950A80E80E9404
:100C8E00950A6CED70E080E00E94650A80EC0E948F
:100C9E00950A80916F00CDEC8C9F812D1124869545
:100CAE0086958695805D0E94A70A80916F008C9F25
:100CBE00912D1124969596959695990F292F220F81
:100CCE00220F920F891B805D0E94A70A8AE30E9461
:100CDE00A70A80916E008C9F812D11248695869592
:100CEE008695805D0E94A70A80916E008C9F912D43
:100CFE001124969596959695990F292F220F220FCE
:100D0E00920F891B805D0E94A70A8AE30E94A70AA0
:100D1E0080916D008C9F812D1124869586958695E8
:100D2E00805D0E94A70A80916D008C9FC12D1124B9
:100D3E00C695C695C695CC0F9C2F990F990FC90FC6
:100D4E008C1B805D0E94A70A80EC0E94950AC1E070
:100D5E000E94440A80916C008E3009F466C1809125
:100D6E006C008A3061F4C13049F0C23029F480EC55
:100D7E000E94950AC0E003C0C25001C0C5E0809138
:100D8E006C0080916C008A3008F01AC130916F00AF
:100D9E0020916E0090916D00C33009F43FC028F48D
:100DAE00C13061F0C23031F198C0C53009F466C06F
:100DBE0008F450C0C63009F47DC08FC040916F005A
:100DCE0060916C008DEC489F812D1124869586953F
:100DDE008695880F582F550F550F850F542F581B7A
:100DEE00862F880F482F440F440F840F850F809352
:100DFE006F0073C040916F0050916C008DEC489F56
:100E0E00812D1124869586958695880F482F440F3F
:100E1E00440F840F850F80936F005FC040916E006A
:100E2E0060916C008DEC489F812D112486958695DE
:100E3E008695880F582F550F550F850F542F581B19
:100E4E00862F880F482F440F440F840F850F8093F1
:100E5E006E0043C040916E0050916C008DEC489F27
:100E6E00812D1124869586958695880F482F440FDF
:100E7E00440F840F850F80936E002FC040916D003C
:100E8E0060916C008DEC489F812D1124869586957E
:100E9E008695880F582F550F550F850F542F581BB9
:100EAE00862F880F482F440F440F840F850F809391
:100EBE006D0013C040916D0050916C008DEC489FF9
:100ECE00812D1124869586958695880F482F440F7F
:100EDE00440F840F850F80936D0080916F008831D1
:100EEE0018F030936F00C150809174008C3318F05D
:100EFE0020936E00C15080916D008C3318F090934A
:100F0E006D00C15080EC0E94950A80916F00DDEC5F
:100F1E008D9F812D1124869586958695805D0E94E4
:100F2E00A70A80916F008D9F912D1124969596950D
:100F3E009695990F292F220F220F920F891B805DF4
:100F4E000E94A70A8AE30E94A70A80916E008D9FD5
:100F5E00812D1124869586958695805D0E94A70A1F
:100F6E0080916E008D9F912D112496959695969554
:100F7E00990F292F220F220F920F891B805D0E943D
:100F8E00A70A8AE30E94A70A80916D008D9F812D8A
:100F9E001124869586958695805D0E94A70A80917C
:100FAE006D008D9FD12D1124D695D695D695DD0F3A
:100FBE009D2F990F990FD90F8D1B805D0E94A70A47
:100FCE00C330A1F028F4C13049F0C23059F01DC031
:100FDE00C530A1F078F0C630A9F017C081EC0E94A0
:100FEE00950A13C083EC0E94950A0FC084EC0E94F0
:100FFE00950A0BC086EC0E94950A07C087EC0E94EA
:10100E00950A03C080EC0E94950A8BEAC89F812D39
:10101E00112486958695982F990F890F982F990FE1
:10102E008C2F891BC1E0C80F93CEDF91CF9108950D
:10103E0087B3806E87BB84B38C6084BB80EF81BB2B
:10104E008FEF82BB85B715BE84B7806484BF8BB724
:10105E00806A8BBF78940E941F0A0E94D60A8CE089
:10106E000E94950A83E690E00E94F70983E690E0DD
:10107E000E94250983EF91E00197F1F700C000006F
:10108E000E948B098CE00E94950A83E690E00E94F4
:10109E00F70983E690E00E942509C3E6D0E0888137
:1010AE000E94B90A082F89810E94B90A182F8A81D5
:1010BE000E94B90A9091750089130BC0909174002B
:1010CE0019130AC090917300091749F040E050E0DF
:1010DE0008C040E050E005C040E050E002C041E0F2
:1010EE0050E09091720089130BC09091710019130A
:1010FE000AC090917000091749F020E030E008C056
:10110E0020E030E005C020E030E002C021E030E019
:10111E00242B352B90916F0089130BC080916E009C
:10112E0018130AC080916D00081749F080E090E016
:10113E0008C080E090E005C080E090E002C081E051
:10114E0090E0822B932B892B19F00E94C30903C0C8
:10115E0085B38B7F85BB87EA91E60197F1F700C0D7
:04116E00000090CF1E
:101172001F920F920FB60F9211242F933F934F930A
:101182005F936F937F938F939F93AF93BF93EF93ED
:10119200FF9381E00E94950A83EF91E00197F1F7B6
:1011A20000C000008FE00E94950A80E80E94950A24
:1011B20068EE70E080E00E94650A9FE926E881E01F
:1011C200915020408040E1F700C000000E94440A94
:1011D20080916C008A3029F40E947D0010926C008C
:1011E200D8CF80916C008B3019F40E94C309D1CF03
:1011F20080916C008C3019F40E946702CACF8091F2
:101202006C008D3019F40E944F04C3CF80916C00A2
:101212008E3019F40E943706BCCF80916C008F305B
:1012220061F610926C00FF91EF91BF91AF919F9187
:101232008F917F916F915F914F913F912F910F907D
:081242000FBE0F901F901895DC
:10124A00FF920F931F93CF93DF93EC0188810E9443
:10125A00B90A182F89810E94B90A082F8A810E9427
:10126A00B90AF82E81E00E94950A80E80E94950A40
:10127A006EEA70E080E00E94650ACDECFC9ED12DFA
:10128A001124D695D695D69580E38D0F0E94A70A8C
:10129A00DD0F8D2F880F880FD80F8F2D8D1B805D46
:1012AA000E94A70A8AE30E94A70A0C9FD12D112443
:1012BA00D695D695D69580E38D0F0E94A70ADD0FA5
:1012CA008D2F880F880FD80F802F8D1B805D0E946D
:1012DA00A70A8AE30E94A70A1C9FC12D1124C6955A
:1012EA00C695C69580E38C0F0E94A70ACC0F8C2F57
:1012FA00880F880FC80F812F8C1B805D0E94A70A58
:0C130A00DF91CF911F910F91FF9008958B
:101316001092610020E09FEE2CC082B38F70892B63
:1013260082BB80B38F708F30E9F08E3019F4209332
:101336006C0014C08D3029F484E0820F80936C0019
:101346000DC08B3029F488E0820F80936C0006C0B4
:10135600873021F48CE0820F80936C0081E08093CB
:10136600610007C0892F90E0880F991F982F916020
:101376002F5F80916100811102C0243070F20895C0
:1013860085B3846085BB85B3886085BB86E791E0BD
:101396000197F1F700C0000085B38B7F85BB80E124
:1013A60092E10197F1F700C000009FE32DE083E092
:1013B600915020408040E1F700C0000085B3846072
:1013C60085BB89EF90E00197F1F700C0000085B377
:1013D6008B7F85BB8DE892E10197F1F700C0000095
:0813E60085B3877F85BB0895E4
:1013EE00CF93DF93EC010E94DC0A80ED0E94CF0ABE
:1013FE0080E00E94CF0A0E94DC0A81ED0E94CF0A93
:10140E0080E00FC0833010F494EC01C094E896BFD6
:10141E0006B607FEFDCFFE01E80FF11D93B19083D6
:10142E008F5F843078F30E94E20ADF91CF910895A6
:10143E008FEF8ABB87B3806E87BB1BBA88B38F7161
:10144E0088BB83ED90E30197F1F700C0000088E3BD
:10145E000E94950A8CE00E94950A81E00E94950AEE
:10146E0083EF91E00197F1F700C0000086E00E9443
:0A147E00950A80E80E94950A08957F
:10148800CF93DF93C2E308C00E948B09809161006B
:10149800811101C0C2E3C150C111F6CFD0916C00D7
:1014A800C2E308C00E948B0980916100813009F471
:1014B800C2E3C150C111F6CFD0936C00DF91CF9138
:0214C800089585
:1014CA00CF92DF92EF92CF936B01E82EC0E003C078
:1014DA000E94A70ACF5FAE2DC6018C0F911DA11DD8
:1014EA00FC018491A7FD8081882311F0C03180F32B
:0A14FA00CF91EF90DF90CF9008959E
:101504009DEC899F912D112496959695969520E1B1
:10151400929FA0011124990F292F220F220F920FBD
:06152400891B842B0895D1
:10152A0098B39F7D98BB98B39F7B98BB8BBB88B3BE
:10153A00806888BB88B38F7788BB81E28A95F1F788
:04154A000000089500
:10154E0098B3906298BB98B39F7B98BB8BBB88B3C4
:10155E00806888BB88B38F7788BB81E28A95F1F764
:04156E0000000895DC
:10157200982F92959F70990F292F220F220F920F69
:061582008F70890F08952F
:10158800EC010E94EA0A0E94E90ACE010E94EB0AD5
:06159800CE010E94E70AEB
:0E159E0083B984E886BF06B607FEFDCF089528
:0C15AC0011B88DE280B984E086BF08957C
:0C15B80084EA86BF06B607FEFDCF08954A
:0615C40084E986BF0895D2
:0415CA000C9400007D
:0415CE000E94550022
:0215D20008957A
:0215D400089578
:0215D600089576
:00000001FF
